:100000000C943A000C9457000C9457000C94570031
:100010000C9457000C9457000C9457000C94570004
:100020000C9457000C9457000C9457000C945700F4
:100030000C9457000C9457000C9457000C945700E4
:100040000C9457000C9457000C9457000C945700D4
:100050000C9457000C9457000C9457000C945700C4
:100060000C9457000C9457000C9457000C945700B4
:100070000C94570011241FBECFEFD4E0DEBFCDBFDC
:1000800011E0A0E0B1E0E6E2FFE002C005900D92D1
:10009000AC3DB107D9F721E0ACEDB1E001C01D9254
:1000A000A33FB207E1F70E9481060C9491070C94DC
:1000B00000000C941C060C94B005FC0190E096170F
:1000C00071F08081841308C08181851305C082810D
:1000D000882311F0892F08959F5F3396F0CF8FEF1B
:1000E0000895EF92FF920F931F93CF93DF93EB014D
:1000F0003981122F130F2881042F020FE880F98015
:10010000A70163E20E945D008F3F11F061E001C032
:1001100060E0C7010E94F4020883198361E08881CE
:100120009981DF91CF911F910F91FF90EF900C94E7
:10013000F4020F931F93CF93DF93EC018B0180E0C8
:100140000E947E05882331F02FEF40E0B801CE01F8
:100150000E94710082E00E947E05882331F021E038
:1001600040E0B801CE010E94710083E00E947E054C
:10017000882331F020E04FEFB801CE010E947100DA
:1001800081E00E947E05882331F020E041E0B80143
:10019000CE010E94710084E00E947E058823D9F080
:1001A000F8014081518168E0CE010E945D008F3FDF
:1001B00091F0082E000C990B63E070E00E9491060C
:1001C000C80FD91F8A81882331F060E08881998126
:1001D0000E94F4021A82DF91CF911F910F9108952E
:1001E0005F926F927F928F929F92AF92BF92CF92C7
:1001F000DF92EF92FF920F931F93CF93DF93EC0167
:100200008B01FC0187599F4F34E026E03083218326
:10021000128233968E179F07C9F7712C87E0E82E5C
:10022000F12C95E0C92ED12C55245394872C912C78
:100230008016910640F50E9459075C010E945907FB
:10024000B7010E94B606682EC501B6010E94B60627
:10025000B82E482F562D672DCE010E945D008F3F8E
:1002600051F7C40163E070E00E949106FE01E80FBF
:10027000F91FB0826182528261E0808191810E9487
:10028000F4027394D3CFDF91CF911F910F91FF9020
:10029000EF90DF90CF90BF90AF909F908F907F9026
:1002A0006F905F900895CF93DF93CDB7DEB7CB56B5
:1002B000D1090FB6F894DEBF0FBECDBF0E94FD017D
:1002C00088EE93E00E94C7020E941C0688EE93E02D
:1002D0000E943A0582E0AB968FAFAB9783E0AC9675
:1002E0008FAFAC97B12CC12CD12C00E010E0E12CE9
:1002F000F12C0E94DC020E94BE0481E3C816D104E6
:1003000038F061E0AC968EAD9FADAC970E94F402E0
:1003100084E0E816F10470F081E0B8120BC00E948E
:10032000B005BE0166597F4FCE0101960E9499002B
:10033000E12CF12C0430110560F0B11008C068E028
:1003400070E0CE0101960E94F000BB24B39400E05F
:1003500010E08FEFC81AD80A8FEFE81AF80A0F5F7B
:100360001F4FC7CF84EF91E00E943A0585E391E0EB
:100370000E94B9048AE00E94A90481E090E00C94F4
:10038000B404CF93DF93EC010E94B20181E090E0CE
:100390000E94AF04CE010E949A0484EF91E00E9473
:1003A000C7020E941C060E94DC020E94BE040E943A
:1003B000B00584E00E947E058823A9F3DF91CF91E8
:1003C0000C941C06CF93DF930E94B20180E090E072
:1003D0000E94AF0483ED91E00E949A0484EF91E0C3
:1003E0000E94C702C9E2DAE00E94DC020E94BE0459
:1003F0002197D1F7DF91CF910895E1E6F0E080E811
:1004000080831082A89584B7877F84BFE0E6F0E000
:10041000808188618083108208951092800084E03A
:10042000809381001092850010928400089580913D
:100430008400909185000895AC0180918400909192
:1004400085009C01241B350B283E3340B0F70895EE
:100450002091840030918500820F931F0C941C0220
:10046000853098F4673088F421E030E001C0220F35
:100470006A95EAF7E82FF0E0E352FE4F922F90954D
:10048000808189234111822B80830895853080F4F7
:10049000673070F421E030E001C0220F6A95EAF77E
:1004A000E82FF0E0E352FE4F8081282381E009F439
:1004B00080E008956091DC01E62FF0E0E352FE4F0A
:1004C00080810E944B068091DC018F5F853018F49B
:1004D0008093DC0108951092DC010895EDEDF1E0C8
:1004E0001082118212821382148208950E942906BA
:1004F0000C946E02009789F0FC012381621B67FD5A
:1005000009C0062E000C770B248130E081E06217D1
:1005100073070CF080E08170089580E00895CF9318
:10052000DF93FC01892B79F18181481760F5928175
:10053000291748F59381A62FA91BA7FD24C00A2ED1
:10054000000CBB0BC481D0E0AC17BD07E4F4622FF4
:100550000E948806480F858190E0BD010E949106A7
:100560000696242F269526952695E80FF91FE20F6B
:10057000F11D808190E0477002C0959587954A955E
:10058000E2F7817001C080E0DF91CF910895CF93B1
:10059000DF93EC010E940D029E0140E050E062E119
:1005A0007AE780E090E00E94CA063093E50120934C
:1005B000E401DF91CF9108958091E2019091E301F0
:1005C0000E941C022091E2013091E3018091E4013C
:1005D0009091E501820F931F9093E3018093E201D4
:1005E0000895692F0C94460241E0611101C040E07A
:1005F000692F0C9430020C94F4025F926F927F92F8
:100600008F929F92AF92BF92CF92DF92EF92FF9222
:100610000F931F93CF93DF93562E872E942E5C015A
:10062000E62EF72EC62F660FDD0BC81BD10987FDFE
:10063000D395072F770F110B091B110997FD139500
:10064000D7FF03C077247A9402C07724739417FFEE
:1006500003C066246A9402C066246394D7FF03C073
:10066000D195C195D10917FF03C0119501951109C5
:10067000C017D107A4F06E01D594C794F92EA51424
:1006800011F1692D8A2D9F2D0E94F402C01AD10A02
:10069000D7FE03C0CC0EDD1EF60CA70CF0CF680110
:1006A000D594C794E82EB81471F0692D8E2D9B2D2A
:1006B0000E94F402CC1ADD0AD7FE03C0C00ED11E80
:1006C000E70CB60CF0CF692DC701DF91CF911F91D8
:1006D0000F91FF90EF90DF90CF90BF90AF909F90E1
:1006E0008F907F906F905F900C94F402FF920F9325
:1006F0001F93CF93DF93D82FF92E162FC72F042FD8
:10070000792F0E94FD02402F6D2F7C2F8D2F9F2D62
:100710000E94FD02402F612F7C2F812F9F2D0E9470
:10072000FD02402F612F7C2F8D2F9C2F0E94FD02F8
:10073000DF91CF911F910F91FF9008950E946E025B
:10074000E0E0F1E0118A14860895DF92EF92FF92C3
:100750000F931F93CF93DF93D82E7B01162F0F2D6E
:100760008091020190910301D0E0019799F50F2D3E
:100770000D1BE0910801F09109018181C0E0D817BB
:10078000B8F48091080190910901FC012281C217FF
:1007900068F42C2F4D2F6D2D0E948F02682F8E2D07
:1007A0008C0F902F0E94F402CF5FEBCFDF5FDFCF83
:1007B000E0910801F09109018281C81740F460E0DE
:1007C0008E2D8C0F902F0E94F402CF5FF1CF01503D
:1007D00030C0DF5F1E2D1D0FE0910801F09109016F
:1007E0008181C0E0D817A8F4809108019091090197
:1007F000FC012281C21768F72C2F4D2F6D2D0E940E
:100800008F02682F812F9F2D9C0F0E94F402CF5FD3
:10081000EBCFE0910801F09109018281C81740F403
:1008200060E0812F9F2D9C0F0E94F402CF5FF1CFDB
:100830001F5F812F902FDF91CF911F910F91FF901C
:10084000EF90DF9008950F931F93CF938C01C0E03A
:10085000F80181918F01882341F00E94A503BC011A
:10086000CF5F853014F477FFF3CF8C2FCF911F919A
:100870000F9108950F931F93CF93DF9310920C0164
:1008800040930D011092100100910801109109018F
:100890000115110509F449C09B01EC01F8018181A2
:1008A000609106017091070190E00E949106BC01E1
:1008B00080910A0190910B010E94A206CB016AE08F
:1008C00070E00E94910690930F0180930E01309387
:1008D00005012093040140E250E0BE0181E191E076
:1008E0000E94690780910001909101010197E9F44C
:1008F000FE0101900020E9F73197BF016C1B7D0BD1
:10090000F80181818F5F0E94880681502091020149
:10091000309103012130310511F095E001C097E0DD
:10092000981718F48EEF80931001DF91CF911F91EB
:100930000F9108952091020130910301213031057A
:1009400011F070E001C076E04FEF60E00E943A04E1
:10095000089590E090930701809306010895909385
:100960000101809300010895909303018093020197
:100970000895909309018093080108958091E601FC
:100980009091E70101969093E7018093E601209111
:100990000E0130910F018217930708F469C010927D
:1009A000E7011092E601E0910C01F0E0E050FF4F0A
:1009B000818981110AC080910D01823008F458C0EC
:1009C000815080930D0110920C0180910C0190E0F8
:1009D000FC01E050FF4F2189222309F449C04091D6
:1009E000000150910101209110014115510521F0A4
:1009F0004130510599F024C0211122C060910401B9
:100A0000709105018F5E9E4F0E94230490E0019734
:100A100090910C01890F80930C0112C06091040128
:100A2000709105014091020150910301413051053F
:100A300011F4720F01C0621B8F5E9E4F0E9423044F
:100A4000809110018F5F80931001082E000C990B8C
:100A5000E0910801F0910901218130E02817390760
:100A60003CF41092100180910C018F5F80930C0177
:100A70000C945A02CF93DF93C0E0D1E09B878A8722
:100A80000E94760284E190E09F838E83DF91CF9174
:100A90000C949E036230710519F170F46130710598
:100AA00059F5FC01FF2724A1392F3095922F93236C
:100AB00094A385A183231DC06330710541F0643088
:100AC0007105D1F4FC01FF2784A1892B0FC0FC0123
:100AD000FF2784A1892B84A385A19095892309C030
:100AE000FC01FF2784A1292F2095822384A385A1BF
:100AF000892B85A381E0089580E00895E82FF0E038
:100B0000EE0FFF1FE851FE4F8081882321F0918175
:100B100081E0892702C080E090E081700895E82F8D
:100B2000F0E0EE0FFF1FE851FE4F8081811102C0FF
:100B3000818102C080E090E081700895E82FF0E0AC
:100B4000EE0FFF1FE851FE4F80810895E82FF0E07F
:100B5000EE0FFF1FE851FE4F908181E08927089535
:100B60007F928F929F92AF92BF92CF92DF92EF923D
:100B7000FF920F931F93CF93DF93C8EED1E051EB19
:100B8000C52E51E0D52E66E0762E88818983F60148
:100B9000019111916F015801BB24F50124A1E12EAF
:100BA000FF2485A190E08E219F2130E02E213F215E
:100BB000232B31F0892B51F433E0832E912C0DC07F
:100BC000892B41F488248394912C07C094E0892ECA
:100BD000912C03C082E0882E912C64E070E0C80163
:100BE0000E944A0562E070E0C8010E944A05872D14
:100BF0008A95F1F7F50183A190E0E822F92281E0DE
:100C0000EF2809F080E08883B401C8010E944A05FA
:100C10002296F1E0C23FDF0709F0B7CFDF91CF9115
:100C20001F910F91FF90EF90DF90CF90BF90AF900A
:100C30009F908F907F90089508959C01FC01FF275D
:100C400084A1832B84A395A1892F832B85A381E085
:100C50000895CF93DF93C5ECD1E0899199910E94DB
:100C60001D0681E0C33DD807C1F783E090E40E94F0
:100C70001D0680E090E80E941D0683E090E10E943E
:100C80001D0683E090E80E941D0683E090E2DF915C
:100C9000CF910C941D06E091F201F0E0EE0FFF1FE2
:100CA000E554FE4F20813181F901FF2795A1932B57
:100CB00095A3E5ECF1E097E020813181D901BB27D4
:100CC00095962C91959780FF03C03095232301C002
:100CD000232B95962C938695915032969111ECCFBB
:100CE000E62FF0E0EE0FFF1FE554FE4F808191816B
:100CF000FC01FF2785A19095892385A36093F201CC
:100D000008950E94FD010E94530180E090E0089543
:100D1000002480FD060E660F11F08695D1F7802D18
:100D200008950024552704C0080E591F880F991FE5
:100D3000009729F076956795B8F37105B9F7802D7E
:100D4000952F0895AA1BBB1B51E107C0AA1FBB1F0B
:100D5000A617B70710F0A61BB70B881F991F5A9547
:100D6000A9F780959095BC01CD01089597FB072EBA
:100D700016F4009407D077FD09D00E94A20607FC64
:100D800005D03EF4909581959F4F0895709561959B
:100D90007F4F0895052E97FB1EF400940E94E106F4
:100DA00057FD07D00E94E90607FC03D04EF40C94CF
:100DB000E10650954095309521953F4F4F4F5F4F3D
:100DC000089590958095709561957F4F8F4F9F4FB7
:100DD0000895A1E21A2EAA1BBB1BFD010DC0AA1F7C
:100DE000BB1FEE1FFF1FA217B307E407F50720F094
:100DF000A21BB30BE40BF50B661F771F881F991F0F
:100E00001A9469F760957095809590959B01AC0157
:100E1000BD01CF0108958F929F92AF92BF92CF9262
:100E2000DF92EF92FF92CF93DF93EC01688179819B
:100E30008A819B81611571058105910521F464E228
:100E400079ED8BE597E02DE133EF41E050E00E9432
:100E5000CA0649015A0127EA31E440E050E00E9405
:100E600078076B017C012CEE34EF4FEF5FEFC5018B
:100E7000B4010E947807DC01CB018C0D9D1DAE1DD5
:100E8000BF1DB7FF03C00197A109B04888839983AC
:100E9000AA83BB839F77DF91CF91FF90EF90DF9084
:100EA000CF90BF90AF909F908F9008950E940B07B6
:100EB000089581E391E00E940B070895A0E0B0E05F
:100EC0008093310190933201A0933301B0933401A8
:100ED0000895FB01DC014150504048F001900D9213
:100EE0000020C9F701C01D9241505040E0F708951D
:100EF000EE27FF27AA27BB2708C0A20FB31FE41FB6
:100F0000F51F220F331F441F551F96958795779520
:100F1000679598F37040A9F7009799F7BD01CF0145
:060F20000895F894FFCFD4
:100F260000000000000014000000000000000000A7
:100F360000000000000000000000000000000000AB
:100F4600000000000000000000000000000000009B
:100F56000001000000010305203B0200009220EB87
:100F6600737D5FDE3DA552EA7A14004A222229BA31
:100F76002ED0050014C0010020A4126A2B9A74A377
:100F860072A338ED498F38CE2AA712AA2AAE491085
:100F96000410145444380E11152A250000EA5BEBA0
:100FA6003A4F726B3BCF73CF134F7AED5B97742436
:100FB6007B5D564972FD5B6F5B6F7BEF136F7FEF57
:100FC60057CE3897246D7B6D2BED5FAD5AAD24A7B8
:100FD6007203800340032000800310034000800357
:100FE60010038003200040002000100008000400C9
:0C0FF600020001332032203120474F0060
:00000001FF
