:100000000C943A000C9457000C9457000C94570031
:100010000C9457000C9457000C9457000C94570004
:100020000C9457000C9457000C9457000C945700F4
:100030000C9457000C9457000C9457000C945700E4
:100040000C9457000C9457000C9457000C945700D4
:100050000C9457000C9457000C9457000C945700C4
:100060000C9457000C9457000C9457000C945700B4
:100070000C94570011241FBECFEFD4E0DEBFCDBFDC
:1000800011E0A0E0B1E0E8E9FFE002C005900D92C8
:10009000AC3DB107D9F721E0ACEDB1E001C01D9254
:1000A000A33FB207E1F70E949B060C94CA070C9489
:1000B00000000C9438060C94BE05FC0180E0861309
:1000C00002C08FEF08959081941306C0918195131B
:1000D00003C092819111F6CF8F5F3396F0CFEF92EC
:1000E000FF920F931F93CF93DF93EB013981122F70
:1000F000130F2881042F020FE880F980A70163E223
:100100000E945D0061E08F3F09F460E0C7010E943A
:10011000F1020883198361E088819981DF91CF9191
:100120001F910F91FF90EF900C94F1020F931F938A
:10013000CF93DF93EC018B0180E00E948C05882334
:1001400031F02FEF40E0B801CE010E946F0082E055
:100150000E948C05882331F021E040E0B801CE01F7
:100160000E946F0083E00E948C05882331F020E01C
:100170004FEFB801CE010E946F0081E00E948C0514
:10018000882331F020E041E0B801CE010E946F00E9
:1001900084E00E948C058823D9F0F80140815181C8
:1001A00068E0CE010E945D008F3F91F0082E000CA8
:1001B000990B63E070E00E94AB06C80FD91F8A81DB
:1001C000882331F060E0888199810E94F1021A82CF
:1001D000DF91CF911F910F9108955F926F927F925F
:1001E0008F929F92AF92BF92CF92DF92EF92FF9247
:1001F0000F931F93CF93DF93EC018B01FC01875981
:100200009F4F34E026E030832183128233968E178D
:100210009F07C9F7B12C87E0E82EF12C95E0C92E95
:10022000D12C772473948B2C912C8016910680F01E
:10023000DF91CF911F910F91FF90EF90DF90CF90C2
:10024000BF90AF909F908F907F906F905F90089538
:100250000E949207582EA92E0E949207B7010E9471
:10026000D006682E852D9A2DB6010E94D006A82EA4
:10027000482F562D6B2DCE010E945D008F3F41F718
:10028000C40163E070E00E94AB06FE01E80FF91FB5
:10029000A0826182728261E0808191810E94F1027C
:1002A000B394C1CFCF93DF93CDB7DEB7CB56D1098F
:1002B0000FB6F894DEBF0FBECDBF0E94030288EEDA
:1002C00093E00E94C4020E94380688EE93E00E94E8
:1002D000490582E0AB968FAFAB9783E0AC968FAFCA
:1002E000AC97B12CC12CD12C00E010E0E12CF12C0A
:1002F0000E94D9020E94D00481E3C816D10438F0CC
:1003000061E0AC968EAD9FADAC970E94F10284E0A7
:10031000E816F10470F081E0B81223C00E94BE0517
:10032000BE0166597F4FCE0101960E949600E12CD6
:10033000F12C0430110561F4B11008C068E070E0E0
:10034000CE0101960E94ED00BB24B39400E010E0C2
:100350008FEFC81AD80A8FEFE81AF80A0F5F1F4FFD
:10036000C7CF04301105A1F7E9CF84EF91E00E94D7
:10037000490585E391E00E94CB048AE00E94BB041A
:1003800081E090E00C94C604CF93DF93D82FC92F5F
:100390000E94B50181E090E00E94C1048D2F9C2F46
:1003A0000E94AE0484EF91E00E94C4020E943806CD
:1003B0000E94D9020E94D0040E94BE0584E00E94DF
:1003C0008C058823A9F3DF91CF910C943806CF9345
:1003D000DF930E94B50180E090E00E94C10483EDAC
:1003E00091E00E94AE0484EF91E00E94C402C9E251
:1003F000DAE00E94D9020E94D00421972097C9F721
:10040000DF91CF910895E1E6F0E080E880831082EB
:10041000A89584B7877F84BFE0E6F0E0808188619B
:100420008083108208951092800084E08093810080
:10043000109285001092840008958091840090911C
:10044000850008959C018091840090918500AC0105
:10045000421B530B483E5340B0F70895209184004F
:1004600030918500820F931F0C9422028530B8F4DE
:100470006730A8F421E030E0F90102C0EE0FFF1F61
:100480006A95E2F7BF01E82FF0E0E352FE4F862FB6
:1004900080959081892341954623842B80830895FC
:1004A000853088F4673078F4E82FF0E0E352FE4FAF
:1004B00081E090E001C0880F6A95EAF79081982367
:1004C00081E0911101C080E008956091DC01E62F88
:1004D000F0E0E352FE4F80810E9465068091DC01CE
:1004E0008F5F853008F080E08093DC010895EDEDAA
:1004F000F1E01082118212821382148208950E9408
:1005000043060C947702FC01892B59F08381681B08
:1005100067FD04C081E09481691708F080E0817074
:10052000089580E00895FC01A62F622F892B51F1D8
:100530008181481738F59281291720F59381A91BED
:10054000A7FD20C0B0E0248130E0A217B307D4F4A7
:100550000E94A206480F858190E0BD010E94AB0673
:10056000242F269526952695E80FF91FE20FF11DF9
:10057000868190E0477002C0959587954A95E2F78D
:100580008170089580E00895CF93DF93EC010E947D
:1005900013029E0140E050E062E17AE780E090E0E3
:1005A0000E94E4063093E5012093E401DF91CF91AE
:1005B00008958091E2019091E3010E9422028091CE
:1005C000E2019091E3012091E4013091E501820F75
:1005D000931F9093E3018093E2010895692F0C9497
:1005E000500241E0611101C040E0692F0C943602D5
:1005F0000C94F1025F926F927F928F929F92AF92D2
:10060000BF92CF92DF92EF92FF920F931F93CF93FF
:10061000DF93862E772E942E682E592EB62EA72E77
:10062000062E000C770BE82F082E000CFF0B8B0119
:100630000E1B1F0B272D072C000C330B492F092EE7
:10064000000C550BE901C41BD50B17FF59C0DD2465
:10065000DA94D7FD02C0DD24D3948F01061B170B5B
:10066000CC24CA94D7FF03C0EA01C21BD30B0C17DA
:100670001D076CF1780117FF03C08FEFE81AF80A25
:10068000F594E794A92E681014C0692D8B2D9A2D2E
:10069000DF91CF911F910F91FF90EF90DF90CF905E
:1006A000BF90AF909F908F907F906F905F900C94D1
:1006B000F102692D862D9A2D0E94F102EC1AFD0A95
:1006C000F7FE03C0E00EF11EAD0C6C0CDCCF7E011A
:1006D000D7FF03C09FEFE91AF90AF594E794B82E03
:1006E000571499F2692D8B2D952D0E94F102E01A75
:1006F000F10AF7FE03C0EC0EFD1EBC0C5D0CF0CF42
:10070000CC24C394DD24DA94D7FDAECFDD24D3947A
:10071000AECFFF920F931F93CF93DF93D82FF92E75
:10072000162FC72F042F792F0E94FA02402F6D2F0A
:100730007C2F8D2F9F2D0E94FA02402F612F7C2F3E
:10074000812F9F2D0E94FA02402F612F7C2F8D2F29
:100750009C2FDF91CF911F910F91FF900C94FA0283
:100760000E947702E0E0F1E0118A14860895DF929A
:10077000EF92FF920F931F93CF93DF93D82E7B01BD
:10078000C62F0F2D8091020190910301D0E00197B7
:1007900051F1CE2DCD0FE0910801F0910901818139
:1007A000D81708F45CC0D0E0E0910801F09109018D
:1007B0008281D81708F455C0CF5F27C0212F4D2F55
:1007C0006D2D0E949302682F8E2D810F902F0E9415
:1007D000F1021F5F8091080190910901FC012281C3
:1007E000121760F3DF5F0F2D0D1BE0910801F091F0
:1007F00009018181D81798F0D0E0E0910801F091CB
:1008000009018281D81768F001508C2F902FDF9159
:10081000CF911F910F91FF90EF90DF90089510E01E
:10082000D9CF60E08E2D8D0F902F0E94F102DF5FF7
:10083000E4CF212F4D2F6D2D0E949302682F8C2F16
:100840009F2D910F0E94F1021F5F809108019091EE
:100850000901FC012281121760F3DF5F9ACF10E0DB
:10086000F4CF60E08C2F9F2D9D0F0E94F102DF5F7F
:100870009BCF1F93CF93DF93EC0110E089918823E6
:1008800041F00E94B703BC011F5F853014F477FF6D
:10089000F5CF812FDF91CF911F9108950F931F9373
:1008A000CF93DF93EC01362F272F10920C0140934A
:1008B0000D0110921001009108011091090101151C
:1008C000110509F446C0F80181816091060170911B
:1008D000070190E00E94AB06BC0180910A01909153
:1008E0000B010E94BC06CB016AE070E00E94AB06DF
:1008F00090930F0180930E01309304012093050122
:1009000040E250E0BE0181E191E00E94A2078091A7
:100910000001909101010197E1F4FE010190002096
:10092000E9F73197BF016C1B7D0BF80181818F5F67
:100930000E94A2068150209102013091030197E0AC
:100940002130310509F095E0981718F48EEF809367
:100950001001DF91CF911F910F9108952091020115
:100960003091030176E02130310509F070E04FEF5E
:1009700060E00C944E0490E0909307018093060190
:1009800008959093010180930001089590930301CD
:1009900080930201089590930901809308010895BE
:1009A0008091E6019091E70101969093E701809391
:1009B000E60120910E0130910F018217930708F490
:1009C00042C01092E7011092E601E0910C01F0E0C4
:1009D000E050FF4F8189811109C080910D01823063
:1009E00090F1815080930D0110920C0180910C01C7
:1009F00090E0FC01E050FF4F2189222321F140913A
:100A00000001509101012091100141155105E9F0BB
:100A10004130510559F1809110018F5F8093100191
:100A2000082E000C990BE0910801F0910901218139
:100A300030E0281739073CF41092100180910C0126
:100A40008F5F80930C010C9465022111E4CF6091BB
:100A50000401709105018F5E9E4F0E9439049091B0
:100A60000C019150980F90930C01D5CF6091040127
:100A700070910501409102015091030141305105EF
:100A800031F4720F8F5E9E4F0E943904C4CF621BF7
:100A9000F9CFCF93DF93C0E0D1E09B878A870E9494
:100AA0007F0284E190E09F838E83DF91CF910C944D
:100AB000B0039C016330710561F038F46130710559
:100AC000D9F06230710509F108956430710561F063
:100AD0000895F901FF2784A1832B84A395A1832F77
:100AE0008095892385A30895F901FF2784A1832B8D
:100AF00084A385A1832BF6CFF901FF2794A1832F2F
:100B00008095982394A395A1ECCFF901FF2794A198
:100B1000832F80958923ECCFE82FF0E0EE0FFF1FA5
:100B2000E851FE4F8081882329F0818191E0892757
:100B30008170089580E090E0FBCFE82FF0E0EE0FA9
:100B4000FF1FE851FE4F8081811103C081818170B8
:100B5000089580E090E0FBCFE82FF0E0EE0FFF1F5C
:100B6000E851FE4F80810895E82FF0E0EE0FFF1F5F
:100B7000E851FE4F808191E0892708958F929F92DE
:100B8000AF92BF92CF92DF92EF92FF920F931F939B
:100B9000CF93DF9300D00F92CDB7DEB788EE91E010
:100BA0009B838A8391EBC92E91E0D92E26E0922E69
:100BB000EA81FB8180818183F601019111916F01AE
:100BC0005801BB24F50124A1E12EFF2485A190E06A
:100BD0008E219F2130E02E213F21232B09F43DC09F
:100BE000892B09F43FC0F4E0F983812C64E070E0C4
:100BF000C8010E94590562E070E0C8010E945905D1
:100C0000892D8A95F1F7F50183A190E08E219F212E
:100C100021E0892B09F020E0EA81FB8120836981B2
:100C2000782DC8010E9459058A819B8102969B8379
:100C30008A83825F914009F0BBCF0F900F900F9095
:100C4000DF91CF911F910F91FF90EF90DF90CF90A8
:100C5000BF90AF909F908F900895892B31F421E041
:100C60002983C3CF83E08983C0CF92E09983BDCF2E
:100C700008959C01FC01FF2784A1832B84A385A1F7
:100C8000832B85A30895CF93DF93C5ECD1E08991A1
:100C900099910E94390681E0C33DD807C1F783E0EE
:100CA00090E40E94390680E090E80E94390683E0D3
:100CB00090E10E94390683E090E80E94390683E0C3
:100CC00090E2DF91CF910C943906E091F201F0E0CF
:100CD000EE0FFF1FE554FE4F20813181F901FF2700
:100CE00095A1932B95A3A5ECB1E043ED51E02D9197
:100CF0003D91F901FF2780FF1BC025A1932F9095FF
:100D0000922395A386954A175B0789F7E62FF0E0B3
:100D1000EE0FFF1FE554FE4F80819181FC01FF27FC
:100D200025A1892F8095822385A36093F2010895E0
:100D300095A1932BE6CF0E9403020E94520180E00E
:100D400090E00895002480FD060E660F11F0869550
:100D5000D1F7802D08950024552704C0080E591F8F
:100D6000880F991F009729F076956795B8F371055C
:100D7000B9F7802D952F0895AA1BBB1B51E107C021
:100D8000AA1FBB1FA617B70710F0A61BB70B881F1B
:100D9000991F5A95A9F780959095BC01CD010895AA
:100DA00097FB072E16F4009407D077FD09D00E9418
:100DB000BC0607FC05D03EF4909581959F4F0895A1
:100DC000709561957F4F0895052E97FB1EF4009452
:100DD0000E94FB0657FD07D00E94030707FC03D0C3
:100DE0004EF40C94FB0650954095309521953F4F5D
:100DF0004F4F5F4F089590958095709561957F4F07
:100E00008F4F9F4F0895A1E21A2EAA1BBB1BFD0115
:100E10000DC0AA1FBB1FEE1FFF1FA217B307E407D9
:100E2000F50720F0A21BB30BE40BF50B661F771F31
:100E3000881F991F1A9469F7609570958095909511
:100E40009B01AC01BD01CF010895CF92DF92EF92DB
:100E5000FF92CF93DF93CDB7DEB72A970FB6F89402
:100E6000DEBF0FBECDBF89879A87A985BA858D91D0
:100E70009D910D90BC91A02D89839A83AB83BC83F7
:100E80000097A105B10509F445C0BC01CD012DE1D4
:100E900033EF41E050E00E94E40629833A834B831C
:100EA0005C836D837E838F83988727EA31E440E0FB
:100EB00050E00E94B1076B017C012CEE34EF4FEF44
:100EC0005FEF69817A818B819C810E94B107698380
:100ED0007A838B839C83DC01CB018C0D9D1DAE1D21
:100EE000BF1DB7FF03C00197A109B048E985FA8586
:100EF00080839183A283B3839F772A960FB6F89459
:100F0000DEBF0FBECDBFDF91CF91FF90EF90DF909E
:100F1000CF90089582E49EECACE0BFE1E7CF0E9461
:100F20002507089581E391E00E9425070895A0E038
:100F3000B0E08093310190933201A0933301B093DC
:100F400034010895FB01DC014150504048F001900C
:100F50000D920020C9F701C01D9241505040E0F7AA
:100F60000895EE27FF27AA27BB2708C0A20FB31FAB
:100F7000E41FF51F220F331F441F551F96958795B9
:100F80007795679598F37040A9F7009799F7BD0199
:080F9000CF010895F894FFCF92
:100F98000000000000001400000000000000000035
:100FA8000000000000000000000000000000000039
:100FB8000000000000000000000000000000000029
:100FC8000001000000010305203B0200009220EB15
:100FD800737D5FDE3DA552EA7A14004A222229BABF
:100FE8002ED0050014C0010020A4126A2B9A74A305
:100FF80072A338ED498F38CE2AA712AA2AAE491013
:101008000410145444380E11152A250000EA5BEB2D
:101018003A4F726B3BCF73CF134F7AED5B977424C3
:101028007B5D564972FD5B6F5B6F7BEF136F7FEFE4
:1010380057CE3897246D7B6D2BED5FAD5AAD24A745
:1010480072038003400320008003100340008003E4
:101058001003800320004000200010000800040056
:0C106800020001332032203120474F00ED
:00000001FF
